S00D0000426C696E6B2E7372656327
S11300000C9456000C9460000C9460000C946000F6
S11300100C9460000C9460000C9460000C946000DC
S11300200C9460000C9460000C9460000C946000CC
S11300300C9460000C9460000C9460000C946000BC
S11300400C9460000C9460000C9460000C946000AC
S11300500C9460000C9460000C9460000C9460009C
S11300600C9460000C9460000C9460000C9460008C
S11300700C9460000C9460000C9460000C9460007C
S11300800C9460000C9460000C9460000C9460006C
S11300900C9460000C9460000C9460000C9460005C
S11300A00C9460000C9460000C94600011241FBE3A
S11300B0CFEFDAE0DEBFCDBF0E9462000C94920065
S11300C00C9400006A983E9A6E9A469876982FEFA0
S11300D083ED90E3215080409040E1F700C00000A0
S11300E0469A76982FEF83ED90E32150804090401C
S11300F0E1F700C000004698769A2FEF83ED90E375
S1130100215080409040E1F700C00000469A769A62
S11301102FEF83ED90E3215080409040E1F700C041
S10B01200000D3CFF894FFCFD7
S9030000FC
