S00B00004C43442E7372656346
S11300000C9456000C9473000C9473000C947300BD
S11300100C9473000C9473000C9473000C94730090
S11300200C9473000C9473000C9473000C94730080
S11300300C9473000C9473000C9473000C94730070
S11300400C9473000C9473000C9473000C94730060
S11300500C9473000C9473000C9473000C94730050
S11300600C9473000C9473000C9473000C94730040
S11300700C9473000C9473000C9473000C94730030
S11300800C9473000C9473000C9473000C94730020
S11300900C9473000C9473000C9473000C94730010
S11300A00C9473000C9473000C94730011241FBE01
S11300B0CFEFDAE0DEBFCDBF11E0A0E0B1E0E8EBC6
S11300C0F2E002C005900D92AC30B107D9F721E0FF
S11300D0ACE0B1E001C01D92AD30B207E1F70E947F
S11300E04F010C945A010C940000982F907F909328
S11300F00C0191B39F7091BB21B390910C01922B91
S113010091BB8898899AEFE1FEE43197F1F700C03A
S11301100000899891B39F7091BB91B38295807FC1
S1130120892B81BB8898899A8FE19EE40197F1F726
S113013000C000008998089580B3806F80BB809AC6
S1130140819A089591B39F7091BB91B3282F207F1A
S1130150922B91BB889A899AEFE1FEE43197F1F7EB
S113016000C00000899891B39F7091BB91B38295B0
S1130170807F892B81BB889A899A8FE19EE40197BD
S1130180F1F700C0000089980895823071F018F4E6
S1130190813031F00895833069F0843081F008951E
S11301A08FE7860F0E94750008958FEB860F0E94DB
S11301B07500089583E9860F0E947500089583ED04
S11301C0860F0E9475000895CF93DF93EA010E9481
S11301D0C5008881882331F021960E94A20089916C
S11301E08111FBCFDF91CF9108958FE99FE00197B3
S11301F0F1F700C00000889880E381BB899AEFE1A1
S1130200FEE43197F1F700C000008998EFE9FFE0C0
S11302103197F1F700C00000889881BB899AEFE11B
S1130220FEE43197F1F700C000008998EFE9FFE0A0
S11302303197F1F700C00000889881BB899A8FE15B
S11302409EE40197F1F700C000008998EFE9FFE010
S11302503197F1F700C00000889880E281BB899A49
S11302608FE99FE00197F1F700C000008998EFE95A
S1130270FFE03197F1F700C0000088E20E947500AA
S113028081E00E9475008CE00E94750080E80E9465
S113029075000895F8940E94F500789408950E94DA
S11302A09C000E944A0140E051E061E081E00E942C
S10B02B0E400FFCFF894FFCF36
S10F02B848656C6C6F20576F726C64001A
S9030000FC
