S00F00004D5055363035302E7372656358
S11300000C9408010C9425010C9425010C942501F1
S11300100C9425010C9425010C9425010C942501C4
S11300200C9425010C9425010C9425010C942501B4
S11300300C9425010C9425010C9425010C942501A4
S11300400C9425010C9425010C9425010C94250194
S11300500C9425010C9425010C9425010C942E0973
S11300600C9425010C94FA0B0C94280C0C94250187
S11300700C9425010C9425010C9425010C94250164
S11300800C9425010C9425010C9425010C94250154
S11300900C9425010C9425010C9425010C94250144
S11300A00C9425010C9425010C942501036EDB3678
S11300B03D9A9999993DABAAAA2A3E000000803F37
S11300C0084AD73B3BCE016E84BCBFFDC12F3D6CBB
S11300D074319ABD56833DDA3D00C77F11BED9E421
S11300E0BB4C3E916BAAAABE000000803F072C7A4D
S11300F0A5BA6CC590DA3B9365FC8BBC53F810FD34
S11301003C5692834DBD879D3AB63DCBC9BF5BBE7D
S113011073DA0FC93F0000407A10F35A00A0724E00
S113012018090010A5D4E80000E87648170000E498
S11301300B54020000CA9A3B000000E1F5050000E0
S113014080969800000040420F000000A086010045
S11301500000102700000000E80300000000640015
S1130160000000000A000000000001000000000080
S11301702C76D888DC674F0823DFC1DFAE59E1B1A4
S1130180B796E5E3E453C63AE651997696E8E6C2B3
S11301908426EB898C9B62ED407C6FFCEFBC9C9FBA
S11301A040F2BAA56FA5F490055A2AF75C936B6CDC
S11301B0F9676DC11BFCE0E40D47FEF520E6B500D0
S11301C0D0ED902E0300943577050080841E08003E
S11301D000204E0A000000C80C333333330F986EEE
S11301E012831141EF8D2114893BE65516CFFEE6AB
S11301F0DB18D1844B381BF77C1D901DA4BBE42471
S1130200203284725E228100C9F124ECA1E53D27ED
S113021011241FBECFEFDAE0DEBFCDBF11E0A0E0B6
S1130220B1E0EEE3FAE202C005900D92AE32B107FE
S1130230D9F721E0AEE2B1E001C01D92A939B207BD
S1130240E1F70E9427010C941D150C940000CF9334
S1130250DF93CDB7DEB7EA970FB6F894DEBF0FBED3
S1130260CDBF80E090E0A0E8BFE38F8F98A3A9A35F
S1130270BAA31BA21CA21DA21EA21FA218A619A6E5
S11302801AA61BA61CA61DA61EA61FA618AA19AA56
S11302901AAA1BAA1CAA1DAA1EAA1FAA18AE19AE26
S11302A01AAE80E190E00E94520C78940E940303FD
S11302B02FEF80E792E0215080409040E1F700C0AA
S11302C000007E0125E1E20EF11C0F2EF4E06F2EFA
S11302D0F1E07F2EF02DCE0101966C010F2EF1E19D
S11302E08F2EF1E09F2EF02D0F2EFFE1AF2EF1E0C7
S11302F0BF2EF02D9E01255D3F4FAE01495D5F4F3E
S1130300BE016D5D7F4FCE014F960E945209AE0132
S1130310495C5F4FBE016D5C7F4FCE018F960E949A
S11303208F098FE39CE90197F1F700C000006FA5E6
S113033078A989A99AA9870122E043E00E94E10FE4
S1130340FF92EF927F926F92DF92CF920E94011000
S1130350C6010E94800C6BA97CA98DA99EA922E0EC
S113036043E00E94E10FFF92EF929F928F92DF92FF
S1130370CF920E940110C6010E94800C6FA978AD33
S113038089AD9AAD22E043E00E94E10FFF92EF9223
S1130390BF92AF92DF92CF920E940110C6010E94D9
S11303A0800C8BE291E00E94800C0FB6F894DEBFC3
S11303B00FBECDBF9FCFAF92BF92CF92DF92FF927D
S11303C00F931F93CF93DF936623B9F1C52FD42FD7
S11303D0F62E182F80ED0E944F0B812F0E94A50B43
S11303E085E38A95F1F7000081ED0E944F0B0D2FF4
S11303F01C2FCC24CA94CF0CD12CEFEFCE1ADE0ADA
S1130400C0E0D0E0AF2CB12CF1E0AF1AB108AC16CB
S1130410BD0629F40E94E00BF801808304C00E9409
S1130420C60BF801808321960F5F1F4FCC15DD05A5
S113043071F7CF2D0E94950B01C0C0E08C2FDF9186
S1130440CF911F910F91FF90DF90CF90BF90AF900D
S11304500895AB0161E00E94DB010895EF92FF92E1
S11304600F931F93CF93DF936623D1F07A01162F56
S1130470C82F80ED0E944F0B8C2F0E94A50BE70123
S11304806FEF610F062F10E00F5F1F4F0E0D1F1D42
S113049089910E94A50BC017D107D1F70E94950B33
S11304A0DF91CF911F910F91FF90EF900895CF931B
S11304B0DF931F92CDB7DEB76983AE014F5F5F4F05
S11304C061E00E942E020F90DF91CF910895FF9278
S11304D00F931F93CF93DF931F92CDB7DEB7F62E02
S11304E08A01BE016F5F7F4F0E94290221E030E044
S11304F002C0220F331FFA94E2F799812923F801ED
S113050020830F90DF91CF911F910F91FF90089559
S1130510EF92FF920F931F93CF93DF931F92CDB768
S1130520DEB7442389F1F22E142F062FE82E198208
S1130530BE016F5F7F4F0E942902882329F1402F5B
S113054050E0411B51094F5F5F4F81E090E002C0D2
S1130550880F991F1A95E2F70197042E02C0880F9D
S1130560991F0A94E2F72F2D30E002C0220F331FA7
S11305704A95E2F7682F6095998169238223682B55
S113058069838E2D0E9457020F90DF91CF911F91A6
S11305900F91FF90EF900895FF920F931F93CF93C5
S11305A0DF931F92CDB7DEB7182F062FF42EBE01AE
S11305B06F5F7F4F0E942902FF2051F061E070E0DD
S11305C002C0660F771F0A95E2F78981682B0AC07B
S11305D061E070E002C0660F771F0A95E2F760954C
S11305E0898168236983812F0E9457020F90DF91CC
S11305F0CF911F910F91FF90089540E066E08BE644
S11306000E94CC0208950E94490B25E32A95F1F734
S113061000008FEF91EE24E0815090402040E1F7FC
S113062000C000000E94FD028FE39CE90197F1F7EE
S113063000C0000021E043E062E08BE60E948802F3
S113064023E043E062E08AE10E94880264E089E1F9
S11306500E94570223E042E064E08BE10E9488029A
S113066020E042E064E08CE10E94880285B5856068
S113067085BDEEE6F0E080818160808308954F922D
S11306805F926F927F928F929F92AF92BF92CF921E
S1130690DF92EF92FF920F931F93CF93DF93CDB727
S11306A0DEB7A4970FB6F894DEBF0FBECDBF6D873B
S11306B07E878F87988B298B3A8B4B8B5C8BED8A4B
S11306C0FE8A0F8B188F20E030E0A901C601B50126
S11306D00E94890D811117C020E030E0A9016FA9A3
S11306E078AD89AD9AAD0E94890D81110CC020E0CE
S11306F030E0A9016BAD7CAD8DAD9EAD0E94890D3E
S1130700882309F41AC2A6019501C601B5010E9405
S1130710150F2B013C012FA938AD49AD5AADCA01C3
S1130720B9010E94150F69837A838B839C839B0193
S1130730AC01C301B2010E94900C6D8F7E8F8F8F2C
S113074098A32BAD3CAD4DAD5EADCA01B9010E947D
S1130750150F698F7A8F8B8F9C8F29813A814B81FA
S11307605C81C301B2010E94900C2B013C01298DD4
S11307703A8D4B8D5C8DC301B2010E94900C0E9496
S1130780880F2B013C019B01AC01C601B5010E94FD
S11307908E0D69837A838B839C83A30192016FA955
S11307A078AD89AD9AAD0E948E0D6D837E838F8363
S11307B09887A30192016BAD7CAD8DAD9EAD0E9477
S11307C08E0D69877A878B879C876091420170912F
S11307D04301809144019091450120913A01309167
S11307E03B0140913C0150913D018090000190906B
S11307F00101A0900201B090030140903E0150908D
S11308003F0160904001709041010E94150F6B01FF
S11308107C01A3019201C501B4010E94150F9B0143
S1130820AC01C701B6010E948F0C698F7A8F8B8F40
S11308309C8F60910001709101018091020190915F
S113084003012091420130914301409144015091B0
S1130850450180903E0190903F01A0904001B090EE
S1130860410140903A0150903B0160903C017090EE
S11308703D010E94150F6B017C01A3019201C5018A
S1130880B4010E94150F9B01AC01C701B6010E947F
S1130890900C6D8F7E8F8F8F98A360910001709163
S11308A00101809102019091030120910001309196
S11308B00101409102015091030180903A0190900E
S11308C03B01A0903C01B0903D0140903A01509012
S11308D03B0160903C0170903D010E94150F20E0A7
S11308E030E040E05FE30E948F0C6B017C01A301C8
S11308F09201C501B4010E94150F9B01AC01C7010F
S1130900B6010E94900C6B017C019B01AC016D81CE
S11309107E818F8198850E94150F4B015C012D8D7E
S11309203E8D4F8D58A169857A858B859C850E9463
S1130930150F9B01AC01C501B4010E948F0C69A382
S11309407AA38BA39CA3298D3A8D4B8D5C8D6985ED
S11309507A858B859C850E94150F4B015C01A7014C
S1130960960169817A818B819C810E94150F9B017C
S1130970AC01C501B4010E948F0C2B013C012D8DEB
S11309803E8D4F8D58A169817A818B819C810E9413
S1130990150F6B017C01298D3A8D4B8D5C8D6D811A
S11309A07E818F8198850E94150F9B01AC01C70140
S11309B0B6010E948F0C4B015C01C0903601D090AF
S11309C03701E0903801F09039012DEC3CEC4CE417
S11309D05EE369A17AA18BA19CA10E94150F2AE86C
S11309E03BE446E85CE30E94150FA70196010E94D0
S11309F0900C609336017093370180933801909383
S1130A003901C0903201D0903301E0903401F0906C
S1130A1035012DEC3CEC4CE45EE3C301B2010E94D1
S1130A20150F2AE83BE446E85CE30E94150FA70192
S1130A3096010E94900C609332017093330180936D
S1130A40340190933501C0902E01D0902F01E09095
S1130A503001F09031012DEC3CEC4CE45EE3C50137
S1130A60B4010E94150F2AE83BE446E85CE30E94C7
S1130A70150FA70196010E94900C60932E017093AC
S1130A802F018093300190933101209136013091F0
S1130A90370140913801509139016D857E858F85EC
S1130AA098890E94900C6D837E838F839887209110
S1130AB032013091330140913401509135016989FB
S1130AC07A898B899C890E94900C6B017C0120910E
S1130AD02E0130912F0140913001509131016D89E7
S1130AE07E898F89988D0E94900C69877A878B877D
S1130AF09C872D813E814F81588569A17AA18BA164
S1130B009CA10E94900C6D877E878F87988BA7018C
S1130B109601C301B2010E94900C698B7A8B8B8B76
S1130B209C8B29853A854B855C85C501B4010E945F
S1130B30900C6D8B7E8B8F8B988F2AE83BE446E07C
S1130B405CE36D857E858F8598890E94150F6D8382
S1130B507E838F8398872AE83BE446E05CE36989D7
S1130B607A898B899C890E94150F69877A878B877C
S1130B709C872AE83BE446E05CE36D897E898F89A3
S1130B80988D0E94150F6D877E878F87988B809133
S1130B90000190910101A0910201B0910301898BA0
S1130BA09A8BAB8BBC8B8090420190904301A090B8
S1130BB04401B090450180913E0190913F01A09184
S1130BC04001B09141018D8B9E8BAF8BB88F4090CB
S1130BD03A0150903B0160903C0170903D01C090FF
S1130BE00001D0900101E0900201F0900301C501E1
S1130BF0B40190582D813E814F8158850E94150F74
S1130C0069837A838B839C832D893E894F89588D90
S1130C1069857A858B859C850E94150F9B01AC01A3
S1130C2069817A818B819C810E948F0C69837A838C
S1130C308B839C83A30192016D857E858F85988922
S1130C400E94150F9B01AC0169817A818B819C8183
S1130C500E948F0CA70196010E94900C60930001E2
S1130C6070930101809302019093030140903A0133
S1130C7050903B0160903C0170903D01C090420156
S1130C80D0904301E0904401F090450129893A89CC
S1130C904B895C896D817E818F8198850E94150FB7
S1130CA069837A838B839C832D893E894F89588DF0
S1130CB06D857E858F8598890E94150F9B01AC01F7
S1130CC069817A818B819C810E94900C69837A83EB
S1130CD08B839C83A301920169857A858B859C858E
S1130CE00E94150F9B01AC0169817A818B819C81E3
S1130CF00E948F0CA70196010E94900C6093420100
S1130D0070934301809344019093450140903A01CC
S1130D1050903B0160903C0170903D01C0903E01B9
S1130D20D0903F01E0904001F090410129893A8937
S1130D304B895C8969857A858B859C850E94150F12
S1130D4069837A838B839C83A50194016D857E8559
S1130D508F8598890E94150F9B01AC0169817A8166
S1130D608B819C810E948F0C69837A838B839C8303
S1130D70A30192016D817E818F8198850E94150F58
S1130D809B01AC0169817A818B819C810E94900CCA
S1130D90A70196010E94900C60933E0170933F015D
S1130DA08093400190934101C0903A01D0903B015F
S1130DB0E0903C01F0903D0129893A894B895C8996
S1130DC06D857E858F8598890E94150F2B013C01C6
S1130DD0A501940169857A858B859C850E94150FF0
S1130DE09B01AC01C301B2010E94900C4B015C0158
S1130DF02D893E894F89588D6D817E818F8198859B
S1130E000E94150F9B01AC01C501B4010E948F0C17
S1130E10A70196010E94900C60933A0170933B01E4
S1130E2080933C0190933D01C0900001D09001015A
S1130E30E0900201F0900301809000019090010184
S1130E40A0900201B090030180914201909143016E
S1130E50A0914401B09145018D839E83AF83B887EF
S1130E608091420190914301A0914401B0914501C8
S1130E7089879A87AB87BC8780913E0190913F0117
S1130E80A0914001B09141018D879E87AF87B88BB7
S1130E9080913E0190913F01A0914001B0914101A8
S1130EA0898B9A8BAB8BBC8B40903A0150903B0161
S1130EB060903C0170903D0180913A0190913B011A
S1130EC0A0913C01B0913D018D8B9E8BAF8BB88F6F
S1130ED0A5019401C701B6010E94150F69837A83A5
S1130EE08B839C8329853A854B855C856D817E81C6
S1130EF08F8198850E94150F9B01AC0169817A81CD
S1130F008B819C810E94900C69837A838B839C8360
S1130F1029893A894B895C896D857E858F85988975
S1130F200E94150F9B01AC0169817A818B819C81A0
S1130F300E94900C69837A838B839C83A50194011E
S1130F40C701B6010E94150F6B017C0129853A8502
S1130F504B855C856D817E818F8198850E94150FFC
S1130F609B01AC01C701B6010E94900C6B017C018E
S1130F7029893A894B895C896D857E858F85988915
S1130F800E94150F9B01AC01C701B6010E94900C91
S1130F906B017C012D893E894F89588DC301B201B3
S1130FA00E94150F9B01AC01C701B6010E94900C71
S1130FB00E94880F6B017C01609100017091010116
S1130FC08091020190910301A70196010E948E0D68
S1130FD060930001709301018093020190930301D7
S1130FE060914201709143018091440190914501C7
S1130FF0A70196010E948E0D6093420170934301F4
S1131000809344019093450160913E0170913F01AA
S11310108091400190914101A70196010E948E0D9B
S113102060933E0170933F0180934001909341018E
S113103060913A0170913B0180913C0190913D0196
S1131040A70196010E948E0D60933A0170933B01B3
S113105080933C0190933D01A4960FB6F894DEBFB3
S11310600FBECDBFDF91CF911F910F91FF90EF90F5
S1131070DF90CF90BF90AF909F908F907F906F90B4
S11310805F904F9008954F925F926F927F92AF92CC
S1131090BF92CF92DF92EF92FF920F931F93CF9361
S11310A0DF93CDB7DEB72B970FB6F894DEBF0FBE34
S11310B0CDBF4BE851E060E08AE30E946702809173
S11310C08B01811105C025E32A95F1F70000F1CFCA
S11310D04BE851E06EE08BE30E94DB01EBE8F1E0CA
S11310E080816181028133813987148195819A8756
S11310F06084718452844384E484F58470E0782BA2
S1131100072E000C880B990B0E94020E20E030E0A1
S113111040E858E30E94150F5B016C016F2D70E0ED
S11311207E29635E7F4F072E000C880B990B0E946B
S1131130020E23E333E343E851E40E948E0D24E3DB
S11311403AEF4EE85CE30E94150F69837A838B8340
S11311509C83642D70E0752969507109072E000C79
S1131160880B990B0E94020E23E333E343E851E416
S11311700E948E0D24E33AEF4EE85CE30E94150FC3
S11311806D837E838F839887672D70E07629665DF3
S11311907F4F072E000C880B990B0E94020E23E34D
S11311A033E343E851E40E948E0D24E33AEF4EE822
S11311B05CE30E94150F2B013C012A85622F70E02D
S11311C0712B072E000C880B990B0E94020E20E055
S11311D030E040E858E30E94150F9F938F937F936C
S11311E06F933985632F70E0CB01902B9B878A879F
S11311F0BC01990F880B990B0E94020E20E030E08D
S113120040E858E30E94150F9F938F937F936F9349
S1131210E980FA800B811C812D813E814F815885A4
S1131220C301B2010E943F030FB6F894DEBF0FBEA4
S1131230CDBF2B960FB6F894DEBF0FBECDBFDF91A6
S1131240CF911F910F91FF90EF90DF90CF90BF90BF
S1131250AF907F906F905F904F9008951F920F9280
S11312600FB60F9211242F933F934F935F936F9375
S11312707F938F939F93AF93BF93EF93FF930E94BA
S11312804308FF91EF91BF91AF919F918F917F910F
S11312906F915F914F913F912F910F900FBE0F90DF
S11312A01F901895CF92DF92EF92FF92C0900001A9
S11312B0D0900101E0900201F0900301FC01C08292
S11312C0D182E282F3828091420190914301A09104
S11312D04401B0914501FB0180839183A283B383D0
S11312E080913E0190913F01A0914001B091410154
S11312F0FA0180839183A283B38380913A01909110
S11313003B01A0913C01B0913D01F901808391839F
S1131310A283B383FF90EF90DF90CF9008952F9234
S11313203F924F925F926F927F928F929F92AF9271
S1131330BF92CF92DF92EF92FF920F931F93CF93BE
S1131340DF93CDB7DEB762970FB6F894DEBF0FBE5A
S1131350CDBF1C018B015A8B498B609100017091A8
S1131360010180910201909103018090000190900D
S11313700101A0900201B0900301C0904201D090FD
S11313804301E0904401F0904501209142013091E5
S1131390430140914401509145012D833E834F8385
S11313A0588720914201309143014091440150916A
S11313B0450129833A834B835C8320913E0130911C
S11313C03F01409140015091410129873A874B8761
S11313D05C87409000015090010160900201709080
S11313E0030120913A0130913B0140913C0150911D
S11313F03D012D873E874F87588B9B01AC010E948E
S1131400900CA50194010E94150F4B015C01A701EA
S11314109601C701B6010E94900C2D813E814F8137
S113142058850E94150F9B01AC01C501B4010E94AF
S1131430900C20E030E040E85FE30E948F0C6B01E9
S11314407C0129813A814B815C81CA01B9010E94E6
S1131450900C29853A854B855C850E94150F4B01BC
S11314605C01A3019201C301B2010E94900C2D857D
S11314703E854F8558890E94150F9B01AC01C5011B
S1131480B4010E948F0CA70196010E942A0DE989DC
S1131490FA8960837183828393836091420170919E
S11314A04301809144019091450180903A019090CC
S11314B03B01A0903C01B0903D01C0900001D09050
S11314C00101E0900201F090030140903E01509030
S11314D03F0160904001709041019B01AC010E946A
S11314E0900CA50194010E94150F4B015C01A7010A
S11314F09601C701B6010E94900CA30192010E94BB
S1131500150F9B01AC01C501B4010E94900C0E940F
S1131510FC0CDC01CB01B058F80180839183A283D9
S1131520B383609100017091010180910201909157
S113153003018090000190900101A0900201B090FD
S11315400301C0903A01D0903B01E0903C01F0903F
S11315503D0120913A0130913B0140913C01509171
S11315603D012D833E834F83588720913E01309166
S11315703F01409140015091410129833A834B83BB
S11315805C8320913A0130913B0140913C015091A0
S11315903D0129873A874B875C8740900001509032
S11315A00101609002017090030120914201309189
S11315B0430140914401509145012D873E874F8757
S11315C0588B9B01AC010E94900CA50194010E94D0
S11315D0150F4B015C01A7019601C701B6010E94DA
S11315E0900C2D813E814F8158850E94150F9B01DF
S11315F0AC01C501B4010E94900C20E030E040E849
S11316005FE30E948F0C6B017C0129813A814B813D
S11316105C81CA01B9010E94900C29853A854B85E9
S11316205C850E94150F4B015C01A3019201C3016B
S1131630B2010E94900C2D853E854F8558890E94E9
S1131640150F9B01AC01C501B4010E948F0CA701C9
S113165096010E942A0DF101608371838283938332
S113166062960FB6F894DEBF0FBECDBFDF91CF9167
S11316701F910F91FF90EF90DF90CF90BF90AF90AC
S11316809F908F907F906F905F904F903F902F909E
S113169008951092B9008CE08093B800089594EAFC
S11316A09093BC004FEF50E060E070E0ECEBF0E0B2
S11316B09081992334F04150510961097109C0F7AF
S11316C004C0452B462B472B41F19091B900987FDC
S11316D0983011F0903119F58093BB0084E8809321
S11316E0BC008FEF90E0A0E0B0E0ECEBF0E02081F4
S11316F022232CF00197A109B109C8F704C0892B52
S11317008A2B8B2B71F09091B900987F983159F006
S113171081E0903449F480E0089581E0089581E007
S1131720089581E0089580E0089584E98093BC00E1
S113173080E090E0ECEBF0E0208124FF05C001960E
S1131740811521E09207C1F708958093BB0084E8D6
S11317508093BC008FEF90E0A0E0B0E0ECEBF0E011
S1131760208122232CF00197A109B109C8F704C0F4
S1131770892B8A2B8B2B41F09091B900987F81E0C3
S1131780983219F480E0089581E0089584EC809300
S1131790BC008FEF90E0A0E0B0E0ECEBF0E0208143
S11317A022232CF00197A109B109C8F704C0892BA1
S11317B08A2B8B2B19F08091BB00089580E008954B
S11317C084E88093BC008FEF90E0A0E0B0E0ECEB05
S11317D0F0E0208122232CF00197A109B109C8F778
S11317E004C0892B8A2B8B2B19F08091BB000895A0
S11317F080E008951F920F920FB60F9211242F9339
S11318008F939F93EF93FF938091C8002091CE0014
S11318108C71E0914801EF5FEF7190914701E917F6
S113182039F0E0934801F0E0E55BFE4F208301C00E
S113183082E090914601892B80934601FF91EF91BC
S11318409F918F912F910F900FBE0F901F9018951D
S11318501F920F920FB60F9211248F939F93EF93C1
S1131860FF9390914A0180914901981769F0E091A2
S11318704901EF5FEF71E0934901F0E0E559FE4F54
S113188080818093CE0005C0E9ECF0E080818F7DFB
S11318908083FF91EF919F918F910F900FBE0F90D6
S11318A01F90189510924A01109249011092480114
S11318B01092470199231CF422E02093C8009078E9
S11318C09093CD008093CC0088E98093C90086E092
S11318D08093CA00089520914A012F5F2F7190913F
S11318E049012917E1F3E22FF0E0E559FE4F808327
S11318F020934A01E9ECF0E08081806280830895BE
S1131900CF93DF93EC018881882331F021960E94E4
S11319106B0C89918111FBCFDF91CF9108955058C1
S1131920BB27AA270E94A70C0C94D30E0E94C50EB5
S113193038F00E94CC0E20F039F49F3F19F426F4BD
S11319400C94870E0EF4E095E7FB0C94810EE92FBE
S11319500E94E40E58F3BA176207730784079507C9
S113196020F079F4A6F50C94060F0EF4E0950B2EF6
S1131970BA2FA02D0B01B90190010C01CA01A001DD
S11319801124FF27591B99F0593F50F4503E68F138
S11319901A16F040A22F232F342F4427585FF3CF79
S11319A0469537952795A795F0405395C9F77EF44A
S11319B01F16BA0B620B730B840BBAF09150A1F093
S11319C0FF0FBB1F661F771F881FC2F70EC0BA0F19
S11319D0621F731F841F48F4879577956795B795A1
S11319E0F7959E3F08F0B0CF9395880F08F099279C
S11319F0EE0F9795879508959F939F77EEE3893728
S1131A009E0728F4ECEAF0E00E94B10E0CC00E949C
S1131A103D0E9058A2EA2AED3FE049EC5FE30E94B4
S1131A20A70C0E94D30E0F9007FC905808950E94B3
S1131A30C50E60F080E891E009F49EEF0E94CC0EA0
S1131A4028F040E851E071F45EEF0CC00C94870E6E
S1131A500C94060FE92FE0780E94E40E40F3092E5F
S1131A60052AB1F3261737074807590738F00E2E11
S1131A7007F8E02569F0E025E0640AC0EF6307F8A1
S1131A80009407FADB01B9019D01DC01CA01AD0133
S1131A90EF930E94A50D0E94D30E0E945A0D5F91F0
S1131AA0552339F02BED3FE049E450FD49EC0C940B
S1131AB0900C0895DF93DD27B92FBF7740E85FE3EB
S1131AC01616170648075B0718F4D92F0E940D0F46
S1131AD09F938F937F936F930E94C80FE0ECF0E085
S1131AE00E948A0E0E94D30E2F913F914F915F91D5
S1131AF00E94280FDD2351F09058A2EA2AED3FE01E
S1131B0049EC5FE3D0785D270E94A70CDF910C9429
S1131B10D30E0E945D0E08F481E008950E94A20D88
S1131B200C94D30E0E94CC0E58F00E94C50E40F0C7
S1131B3029F45F3F29F00C94810E51110C94070F86
S1131B400C94870E0E94E40E68F39923B1F3552395
S1131B5091F3951B550BBB27AA27621773078407BC
S1131B6038F09F5F5F4F220F331F441FAA1FA9F352
S1131B7035D00E2E3AF0E0E832D091505040E69540
S1131B80001CCAF72BD0FE2F29D0660F771F881FA1
S1131B90BB1F261737074807AB07B0E809F0BB0B94
S1131BA0802DBF01FF2793585F4F3AF09E3F5105A8
S1131BB078F00C94810E0C94070F5F3FE4F3983E89
S1131BC0D4F3869577956795B795F7959F5FC9F791
S1131BD0880F911D9695879597F90895E1E0660F12
S1131BE0771F881FBB1F621773078407BA0720F08B
S1131BF0621B730B840BBA0BEE1F88F7E0950895F4
S1131C00E89409C097FB3EF4909580957095619592
S1131C107F4F8F4F9F4F9923A9F0F92F96E9BB2748
S1131C209395F695879577956795B795F111F8CFC4
S1131C30FAF4BB0F11F460FF1BC06F5F7F4F8F4F2F
S1131C409F4F16C0882311F096E911C0772321F025
S1131C509EE8872F762F05C0662371F096E8862FBD
S1131C6070E060E02AF09A95660F771F881FDAF714
S1131C70880F9695879597F90895DF93CF931F93CF
S1131C800F938B01EC01EDEEF0E00E948A0E0E94AE
S1131C90D30E9801AE018B01EC0160E070E080E8A6
S1131CA09FE30E948F0C0E94880F9801AE010F9150
S1131CB01F91CF91DF910C94280F990F0008550FB5
S1131CC0AA0BE0E8FEEF16161706E807F907C0F0BE
S1131CD012161306E407F50798F0621B730B840BC6
S1131CE0950B39F40A2661F0232B242B252B21F4A0
S1131CF008950A2609F4A140A6958FEF811D811D40
S1131D00089597F99F6780E870E060E008959FEF79
S1131D1080EC0895DF93CF931F930F93FF92EF927C
S1131D20DF927B018C01689406C0DA2EEF010E94D9
S1131D30280FFE01E894A59125913591459155917F
S1131D40A6F3EF010E94A70CFE019701A801DA9403
S1131D5069F7DF90EF90FF900F911F91CF91DF9182
S1131D6008959F938F937F936F93FF93EF939B01BA
S1131D70AC010E94150FEF91FF910E948A0E2F91E2
S1131D803F914F915F910C94150F00240A941616FD
S1131D90170618060906089500240A941216130655
S1131DA0140605060895092E0394000C11F48823E3
S1131DB052F0BB0F40F4BF2B11F460FF04C06F5FFF
S1131DC07F4F8F4F9F4F089557FD9058440F551FD5
S1131DD059F05F3F71F04795880F97FB991F61F0A9
S1131DE09F3F79F087950895121613061406551F20
S1131DF0F2CF4695F1DF08C0161617061806991F8C
S1131E00F1CF86957105610508940895E894BB2780
S1131E1066277727CB0197F908959B01AC0160E011
S1131E2070E080E89FE30C948E0D0E94280F0C94C0
S1131E30D30E0E94C50E38F00E94CC0E20F09523DC
S1131E4011F00C94810E0C94870E11240C94070F3E
S1131E500E94E40E70F3959FC1F3950F50E0551F57
S1131E60629FF001729FBB27F00DB11D639FAA27EB
S1131E70F00DB11DAA1F649F6627B00DA11D661F3A
S1131E80829F2227B00DA11D621F739FB00DA11D5B
S1131E90621F839FA00D611D221F749F3327A00D15
S1131EA0611D231F849F600D211D822F762F6A2FB1
S1131EB011249F5750409AF0F1F088234AF0EE0F16
S1131EC0FF1FBB1F661F771F881F91505040A9F743
S1131ED09E3F510580F00C94810E0C94070F5F3FD8
S1131EE0E4F3983ED4F3869577956795B795F7957F
S1131EF0E7959F5FC1F7FE2B880F911D96958795F7
S1131F0097F9089519F416F40C94870E0C94CC0FD9
S1131F100E94EC0EB8F39923C9F3B6F39F57550BFF
S1131F2087FF0E94DA0F0024A0E640EA900180585F
S1131F305695979528F4805C660F771F881F20F0CC
S1131F4026173707480730F4621B730B840B2029CC
S1131F5031294A2BA69517940794202531254A2721
S1131F6058F7660F771F881F20F026173707480792
S1131F7030F4620B730B840B200D311D411DA095B1
S1131F8081F7B901842F9158880F96958795089504
S1131F909B01AC010C94150F9F3F31F0915020F43C
S1131FA0879577956795B795880F911D9695879531
S1131FB097F9089591505040660F771F881FD2F704
S1131FC00895EF920F931F93CF93DF93E80147FD9A
S1131FD002C034E001C034E1042E000C550B57FF5D
S1131FE003C0519541955109E32E022F242FAE01D0
S1131FF00E940412CE01DF91CF911F910F91EF90B7
S11320000895AEE0B0E0E7E0F0E10C94F4140D893B
S11320101E8986E08C831A8309838FEF9FE79E8352
S11320208D83AE01475E5F4F6F89788DCE01019637
S11320300E942310EF81F885E00FF11F10822E9685
S1132040E4E00C941015ABE0B0E0E9E2F0E10C94AC
S1132050E6146C017B018A01FC01178216828381DC
S113206081FFCCC1CE0101963C01F6019381F701B9
S113207093FD859193FF81917F01882309F4BAC16F
S1132080853239F493FD859193FF81917F018532E7
S113209029F4B60190E00E944C14E7CF912C212C36
S11320A0312CFFE1F315D8F08B3279F038F480321B
S11320B079F08332A1F4232D20611DC08D3261F0AB
S11320C0803369F4232D216016C0832D8260382E5D
S11320D0E32DE4603E2E2AC0F32DF8601DC037FCCA
S11320E02DC020ED280F2A3040F08E32B9F436FC92
S11320F081C1232D2064322E19C036FE06C08AE029
S1132100989E200D1124922E11C0EAE02E9E200DDF
S11321101124222EF32DF0623F2E08C08C3621F4B8
S1132120832D8068382E02C0883641F4F70193FD70
S1132130859193FF81917F018111B3CF982F9F7D6A
S11321409554933028F40C5F1F4F9FE399830DC07F
S1132150833631F0833771F0833509F059C021C0DB
S1132160F801808189830E5F1F4F88248394912C0A
S1132170530113C02801F2E04F0E511CF801A08056
S1132180B18036FE03C0692D70E002C06FEF7FEFAF
S1132190C5010E9441144C018201F32DFF773F2EAB
S11321A016C0280122E0420E511CF801A080B18023
S11321B036FE03C0692D70E002C06FEF7FEFC501EA
S11321C00E9436144C01F32DF0683F2E820133FC3B
S11321D01BC0822D90E088169906B0F4B60180E207
S11321E090E00E944C142A94F4CFF50137FC8591B9
S11321F037FE81915F01B60190E00E944C142110DA
S11322002A9421E0821A91088114910471F7E8C09C
S1132210843611F0893641F5F80137FE07C0608134
S11322207181828193810C5F1F4F08C0608171812D
S1132230072E000C880B990B0E5F1F4FF32DFF76B2
S11322403F2E97FF09C090958095709561957F4FBB
S11322508F4F9F4FF0683F2E2AE030E0A3010E9489
S11322608814882E861845C0853731F4232D2F7E97
S1132270B22E2AE030E025C0932D997FB92E8F36F7
S1132280C1F018F4883579F0B5C0803719F0883773
S113229021F0B0C0E92FE061BE2EB4FE0DC0FB2DCD
S11322A0F460BF2E09C034FE0AC0292F2660B22E66
S11322B006C028E030E005C020E130E002C020E1A3
S11322C032E0F801B7FE07C0608171818281938199
S11322D00C5F1F4F06C06081718180E090E00E5F4B
S11322E01F4FA3010E948814882E8618FB2DFF77A8
S11322F03F2E36FE0DC0232D2E7FA22E891458F4B6
S113230034FE0BC032FC09C0832D8E7EA82E05C07E
S1132310B82CA32C03C0B82C01C0B92CA4FE0FC048
S1132320FE01E80DF11D8081803321F49A2D997E00
S1132330A92E09C0A2FE06C0B394B39404C08A2D8A
S1132340867809F0B394A3FC11C0A0FE06C0B214B1
S113235088F4280C922C9B180EC0B21460F4B601B9
S113236080E290E00E944C14B394F7CFB21418F4B6
S11323702B1802C0982C212CA4FE10C0B60180E3B7
S113238090E00E944C14A2FE17C0A1FC03C088E791
S113239090E002C088E590E0B6010CC08A2D8678F2
S11323A059F0A1FE02C08BE201C080E2A7FC8DE2DD
S11323B0B60190E00E944C14891438F4B60180E30D
S11323C090E00E944C149A94F7CF8A94F301E80D9C
S11323D0F11D8081B60190E00E944C148110F5CF6C
S11323E0222009F442CEB60180E290E00E944C140F
S11323F02A94F6CFF6018681978102C08FEF9FEF72
S11324002B96E2E10C940215A9E0B0E0EAE0F2E1D7
S11324100C94EC146A01122FB02E2BE3201720F039
S1132420FF24F394F00E02C02CE3F22E0F2D27E0CC
S1132430AE014F5F5F4F0E945E13BC014981842F40
S11324408970813031F0E1FC06C0E0FE06C090E204
S113245005C09DE203C09BE201C090E05E2D507177
S113246043FF3CC0911102C083E001C084E08117A6
S113247018F4212F281B01C020E051110BC0F601D4
S1132480822F30E2882319F031938150FBCFC20EA2
S1132490D11C20E0992329F0D6019C93F6013196B2
S11324A06F01C6010396E2FE0AC03EE4D6013C93E6
S11324B041E411964C93119712963C9306C03EE664
S11324C0F601308341E641833283FC01322F40E23E
S11324D0332309F442C041933150FACF42FF44C040
S11324E0911102C083E001C084E0811718F4212F08
S11324F0281B01C020E051110BC0F601822F30E2ED
S1132500882319F031938150FBCFC20ED11C20E0F7
S1132510992329F0D6019C93F60131966F01C601E7
S11325200396E2FE0BC039E4D6013C933EE41196D7
S11325303C93119736E412963C9307C039E6F601B2
S113254030833EE6318336E63283FC01322F40E2AB
S1132550332319F041933150FBCFFC01E20FF11DFD
S113256010828EEF9FEFA6C021E030E0911102C0EF
S113257020E030E0161617061CF4FB01319602C069
S1132580E1E0F0E02E0F3F1FBB2021F0EB2DF0E047
S1132590319602C0E0E0F0E02E0F3F1FE12FF0E0A3
S11325A02E173F071CF4121B212F01C020E08E2D93
S11325B0887159F4F601822F30E2882319F031939F
S11325C08150FBCFC20ED11C20E0992329F0D60103
S11325D09C93F60131966F0151110BC0F601822FC5
S11325E090E3882319F091938150FBCFC20ED11C44
S11325F020E00F2D060F9A81342F307144FF03C061
S1132600913309F40150101624F4093018F008E04D
S113261001C001E0AB0177FF02C040E050E0FB01E4
S1132620E41BF50BA1E0B0E0AC0FBD1FEA0FFB1FEC
S11326308EE2A82E4B01801A91080B2D10E0119503
S1132640019511094F3FBFEF5B0721F4D601AC920E
S113265011966D01641775072CF08416950614F411
S1132660818101C080E3415051093196D601119610
S11326707D014017510724F0D6018C936701E2CF06
S11326806417750739F4963320F4953319F431112E
S113269001C081E3F6018083F701822F90E2882351
S11326A019F091938150FBCFF701E20FF11D1082D5
S11326B080E090E02996ECE00C940815283008F0AE
S11326C027E03327DA01990F311D87FD91600096C9
S11326D06105710539F432602E5F3D9330E32A952C
S11326E0E1F708959F3F30F080387105610509F0E6
S11326F03C5F3C5F3D93913008F08068911DDF930F
S1132700CF931F930F93FF92EF92192F987F969573
S1132710E92F96959695E90FFF27E059FE4F9927E3
S11327203327EE24FF24A701E701059008940794BA
S113273028F4360FE71EF81E491F511D660F771F38
S1132740881F991F0694A1F70590079428F4E70EB3
S1132750F81E491F561FC11D770F881F991F661F3A
S11327600694A1F70590079428F4F80E491F561F04
S1132770C71FD11D880F991F661F771F0694A1F7E5
S11327800590079420F4490F561FC71FD81F990FAF
S1132790661F771F881F0694A9F7849110951770F8
S11327A041F0D695C79557954795F794E7941A95B0
S11327B0C1F7E6E1F1E068941590159135916591C2
S11327C0959105907FE27395E118F10A430B560B3E
S11327D0C90BD009C0F7E10CF11E431F561FC91FD6
S11327E0D01D7EF4703311F48A95E6CFE89401503D
S11327F030F0080F0AF40027021708F4202F23955D
S1132800022F7A3328F079E37D932A95E9F710C0F3
S11328107D932A9589F6069497956795379517952C
S11328201794E118F10A430B560BC90BD00998F021
S113283023957E9173957A3308F070E37C9320138B
S1132840B8F77E9170617D9330F0839571E37D9349
S113285070E32A95E1F71124EF90FF900F911F91F7
S1132860CF91DF91992787FD90950895FC010590FC
S1132870615070400110D8F7809590958E0F9F1F7E
S11328800895FC016150704001900110D8F78095C3
S113289090958E0F9F1F08950F931F93CF93DF93EF
S11328A0FB01238121FD03C08FEF9FEF2CC022FF8A
S11328B016C046815781248135814217530744F459
S11328C0A081B1819D012F5F3F4F318320838C9381
S11328D0268137812F5F3F4F3783268314C08B01B6
S11328E0EC01FB010084F185E02D0995892BE1F6CB
S11328F0D80116968D919C911797019617969C93E3
S11329008E931697CE01DF91CF911F910F91089569
S1132910FA01AA27283051F1203181F1E8946F930C
S11329206E7F6E5F7F4F8F4F9F4FAF4FB1E03ED0B2
S1132930B4E03CD0670F781F891F9A1FA11D680F50
S1132940791F8A1F911DA11D6A0F711D811D911D83
S1132950A11D20D009F468943F912AE0269F1124F8
S11329603019305D3193DEF6CF010895462F47705C
S1132970405D4193B3E00FD0C9F7F6CF462F4F70B7
S1132980405D4A3318F0495D31FD4052419302D015
S1132990A9F7EACFB4E0A6959795879577956795BB
S11329A0BA95C9F700976105710508959B01AC01BB
S11329B00A2E06945795479537952795BA95C9F7E2
S11329C0620F731F841F951FA01D08952F923F92BD
S11329D04F925F926F927F928F929F92AF92BF922B
S11329E0CF92DF92EF92FF920F931F93CF93DF93D7
S11329F0CDB7DEB7CA1BDB0B0FB6F894DEBF0FBE34
S1132A00CDBF09942A88398848885F846E847D8480
S1132A108C849B84AA84B984C884DF80EE80FD8082
S1132A200C811B81AA81B981CE0FD11D0FB6F894F8
S1112A30DEBF0FBECDBFED010895F894FFCFB9
S1132A3E0000803F20726F6C6C203D2025732009AE
S1132A4E00207069746368203D20257320090020DE
S1112A5E796177203D2025732009000A0000CD
S9030000FC
