S00E000053657269616C2E73726563B6
S11300000C9482000C949F000C949F000C949F000D
S11300100C949F000C949F000C949F000C949F00E0
S11300200C949F000C949F000C949F000C949F00D0
S11300300C949F000C949F000C949F000C949F00C0
S11300400C949F000C949F000C949F000C949F00B0
S11300500C949F000C949F000C949F000C949F00A0
S11300600C949F000C94FA000C9428010C949F00AB
S11300700C949F000C949F000C949F000C949F0080
S11300800C949F000C949F000C949F000C949F0070
S11300900C949F000C949F000C949F000C949F0060
S11300A00C949F000C949F000C949F00427566660C
S11300B06572206F766572666C6F77206572726FF9
S11300C0723A200055415254204F76657272756E13
S11300D0204572726F723A20005541525420467284
S11300E0616D65204572726F723A200053747269B3
S11300F06E672073746F72656420696E20464C418C
S113010053480A0011241FBECFEFDAE0DEBFCDBF93
S113011011E0A0E0B1E0ECEEF3E002C005900D9236
S1130120A037B107D9F721E0A0E7B1E001C01D92E3
S1130130A73BB207E1F70E94A1000C94F4010C94D0
S11301400000CF93DF93CDB7DEB727970FB6F894AF
S1130150DEBF0FBECDBF87E690E00E9452017894C7
S113016080E091E00E949E018CEE90E00E94AD013F
S11301708091700190917101019729F487E191E0D8
S11301800E949E0104C086E491E00E949E014AE020
S1130190BE016F5F7F4F86E890E00E94BF01CE01F1
S11301A001960E949E018DE00E9489010E946B01CC
S11301B08C0190FDFBCF94FF04C089ED90E00E9478
S11301C0AD0113FF04C084EC90E00E94AD0111FF67
S11301D004C08CEA90E00E94AD01802F0E94890146
S11301E08091700190917101019701F78DE00E9457
S11301F08901DCCF1F920F920FB60F9211242F9317
S11302008F939F93EF93FF938091C8002091CE002A
S11302108C71E0917401EF5FEF7190917301E917B4
S113022039F0E0937401F0E0E958FE4F208301C0F7
S113023082E090917201892B80937201FF91EF917A
S11302409F918F912F910F900FBE0F901F90189533
S11302501F920F920FB60F9211248F939F93EF93D7
S1130260FF939091760180917501981769F0E09160
S11302707501EF5FEF71E0937501F0E0E956FE4F11
S113028080818093CE0005C0E9ECF0E080818F7D11
S11302908083FF91EF919F918F910F900FBE0F90EC
S11302A01F901895109276011092750110927401A6
S11302B01092730199231CF422E02093C8009078D3
S11302C09093CD008093CC0088E98093C90086E0A8
S11302D08093CA00089590917401809173019817D6
S11302E0A9F0909173019F5F9F71E92FF0E0E958A5
S11302F0FE4F2081809172019093730110927201DC
S113030090E0982F8827820F911D089580E091E056
S11303100895209176012F5F2F719091750129170F
S1130320E1F3E22FF0E0E956FE4F8083209376015B
S1130330E9ECF0E08081806280830895CF93DF93BD
S1130340EC018881882331F021960E9489018991EA
S11303508111FBCFDF91CF910895CF93DF93EC010F
S11303602196FC018491882339F00E948901FE01C1
S1130370849121968111F9CFDF91CF910895BB2704
S11303804A3031F4992322F4BDE2909581959F4F30
S11303900C94CB01BB27FB015527AA27880F991F73
S11303A0AA1FA41710F0A41B83955051B9F7A05DA0
S11303B0AA3308F0A95DA193009779F7B111B1931D
S11303C01192CB010C94E401DC01FC01672F7191C3
S11303D07723E1F7329704C07C916D937083629127
S10F03E0AE17BF07C8F30895F894FFCFD0
S11303EC537472696E672073746F72656420696EDE
S11303FC205352414D0A00436F6E666967757265EE
S113040C6420666F722072657475726E696E6720F3
S113041C6368617273206F76657220626C756574A3
S113042C6F6F74680A00436F6E66696775726564F2
S113043C20666F722072657475726E696E672063C4
S113044C68617273206F76657220465444490A00C1
S9030000FC
