:100000000C9456000C9473000C9473000C947300C1
:100010000C9473000C9473000C9473000C94730094
:100020000C9473000C9473000C9473000C94730084
:100030000C9473000C9473000C9473000C94730074
:100040000C9473000C9473000C9473000C94730064
:100050000C9473000C9473000C9473000C94730054
:100060000C9473000C948A030C94B8030C947300E2
:100070000C9473000C9473000C9473000C94730034
:100080000C9473000C9473000C9473000C94730024
:100090000C9473000C9473000C9473000C94730014
:1000A0000C9473000C9473000C94730011241FBE05
:1000B000CFEFDAE0DEBFCDBF11E0A0E0B1E0ECEAC7
:1000C000F8E002C005900D92A431B107D9F721E004
:1000D000A4E1B1E001C01D92AB35B207E1F70E9487
:1000E0004B020C9454040C940000CF93882331F0FD
:1000F0008091140181608093140105C080911401E6
:100100008E7F80931401809114018260809314018A
:100110006091140180E00E94C40262E080E00E94CD
:10012000050300C064E080E00E941E03811102C04C
:10013000C0E101C0C0E065E080E00E941E038111C3
:1001400001C0C06266E080E00E941E03811101C010
:10015000C06467E080E00E941E03811101C0C06896
:1001600062E080E00E94090300C062E080E00E943B
:10017000050300C064E080E00E941E03811101C0FD
:10018000C16065E080E00E941E03811101C0C26071
:1001900066E080E00E941E03811101C0C46067E038
:1001A00080E00E941E03811101C0C86062E080E00F
:1001B0000E9409038C2FCF91089580E00E94750062
:1001C0008823DCF388E090E00197F1F780E00E945B
:1001D0007500089562E080E00E94050300C062E0BF
:1001E00080E00E9409030895CF93C82F662331F061
:1001F0008091140181608093140105C080911401E5
:100200008E7F80931401809114018D7F809314015F
:100210006091140180E00E94C402809114018F77E4
:1002200080931401809114018F7B8093140180913D
:1002300014018F7D80931401809114018F7E80932F
:100240001401CC232CF48091140180688093140154
:10025000C6FF05C080911401806480931401C5FF1E
:1002600005C080911401806280931401C4FF05C011
:10027000809114018061809314016091140180E0E9
:100280000E94C4020E94EA00809114018F7780933B
:100290001401809114018F7B8093140180911401CB
:1002A0008F7D80931401809114018F7E80931401BF
:1002B000C3FF05C080911401806880931401C2FFC0
:1002C00005C080911401806480931401C1FF05C0B2
:1002D00080911401806280931401C0FF05C0809159
:1002E00014018061809314016091140180E00E94E8
:1002F000C4020E94EA00809114018061809314017D
:1003000080911401806280931401809114018064B3
:10031000809314018091140180688093140160918E
:10032000140180E00E94C402CF910895CF93C82F9A
:100330000E94DD0060E08C2F0E94F400CF910895B0
:10034000611104C080580E949601089580540E9453
:100350009601089581E00E9496010895882331F066
:1003600080911401877F8093140105C0809114014E
:100370008860809314016091140180E00E94C4029F
:10038000089582E00E9496010895CF93C82F0E949D
:10039000DD00CA3049F4803410F080E001C080E410
:1003A00080580E94960113C0803129F460E080ECEF
:1003B0000E94F40006C0803521F460E080E80E94CD
:1003C000F4000E94DD0061E08C2F0E94F400CF91C8
:1003D0000895CF93DF93EC012196FC01808188235F
:1003E00029F00E94C50189918111FBCFDF91CF9146
:1003F00008951F93CF93DF93182F0E94BB02109292
:1004000014016091140180E00E94C40280E09AEF20
:100410000197F1F78091140180628093140180911B
:1004200014018061809314016091140180E00E94A6
:10043000C4020E94EA0080E09EE40197F1F70E9466
:10044000EA00C0E0D1E0CE010197F1F70E94EA0096
:10045000CE010197F1F7809114018F7E80931401F2
:100460006091140180E00E94C4020E94EA0021977A
:10047000F1F788E20E94960188E00E9496010E94AE
:10048000AA0186E00E949601812F0E949601DF91C9
:10049000CF911F910895CF93DF93CDB7DEB72A9701
:1004A0000FB6F894DEBF0FBECDBF80EA91E00E9488
:1004B000E203789480E091E00E9410048DE00E94B5
:1004C000F9010E94C10180E00E94AE01C12CDD242F
:1004D000D394912CA12CB12C8C2D0E94AE018D2D8A
:1004E000C110892DC82E0A2D1B2DE12CF12C4AE0BC
:1004F000BE016F5F7F4FC7010E941F04602F8D2DCB
:100500000E94A0018CE091E00E94E9014AE0BE0156
:100510006F5F7F4FC7010E941F04602F84E00E941D
:10052000A001CE0101960E94E9010F5F1F4F0170EB
:100530001078112334F4015011090E6F1F6F0F5FF3
:100540001F4FCE0101960E94100480E191E00E94AD
:1005500010042FEF83ED90E3215080409040E1F7AD
:1005600000C000002FEFE21AF20A8AE0E816F10458
:1005700009F0BDCFB1CF0E94370385E38A95F1F72B
:10058000000010925A010895CF9381110DC0C62F1B
:1005900060935A018EE40E943D038C2F0E946D03EC
:1005A0000E94640380E001C08FEFCF910895CF9344
:1005B000DF93811124C0683020F580915A014423D3
:1005C00049F0C1E0D0E002C0CC0FDD1F6A95E2F730
:1005D000C82B09C0C1E0D0E002C0CC0FDD1F6A9576
:1005E000E2F7C095C823C0935A018EE40E943D03F0
:1005F0008C2F0E946D030E94640380E003C08FEF84
:1006000001C08FEFDF91CF91089541E00E94D702A2
:10061000089540E00E94D7020895CF9381110AC047
:100620008FE40E943D030E947F03C82FC0950E9463
:10063000640301C0CFEF8C2FCF910895CF93811128
:1006400011C0683088F4C62F0E940D038F3F69F0F7
:10065000082E000C990B02C095958795CA95E2F774
:10066000817003C08FEF01C08FEFCF91089510927A
:10067000B90088E18093B800089594EA9093BC0093
:10068000ECEBF0E090819923ECF79091B900987F22
:10069000983011F09031A1F48093BB0084E88093EE
:1006A000BC00ECEBF0E080818823ECF79091B9007E
:1006B000987F983139F081E0903429F480E00895F2
:1006C00081E0089580E0089584E98093BC00ECEB1C
:1006D000F0E0808184FDFDCF08958093BB0084E825
:1006E0008093BC00ECEBF0E080818823ECF79091E4
:1006F000B900987F81E0983209F480E0089584E899
:100700008093BC00ECEBF0E080818823ECF78091D3
:10071000BB0008951F920F920FB60F9211242F93D2
:100720008F939F93EF93FF938091C8002091CE0009
:100730008C71E0911701EF5FEF7190911601E9174D
:1007400039F0E0931701F0E0E65EFE4F208301C030
:1007500082E090911501892B80931501FF91EF9113
:100760009F918F912F910F900FBE0F901F90189512
:100770001F920F920FB60F9211248F939F93EF93B6
:10078000FF939091190180911801981769F0E091F9
:100790001801EF5FEF71E0931801F0E0E65CFE4FA7
:1007A00080818093CE0005C0E9ECF0E080818F7DF0
:1007B0008083FF91EF919F918F910F900FBE0F90CB
:1007C0001F9018951092190110921801109217019C
:1007D0001092160199231CF422E02093C80090780F
:1007E0009093CD008093CC0088E98093C90086E087
:1007F0008093CA000895209119012F5F2F71909165
:1008000018012917E1F3E22FF0E0E65CFE4F808348
:1008100020931901E9ECF0E08081806280830895E3
:10082000CF93DF93EC018881882331F021960E94D9
:10083000FB0389918111FBCFDF91CF910895BB27F5
:100840004A3031F4992322F4BDE2909581959F4F6F
:100850000C942B04BB27FB015527AA27880F991F4F
:10086000AA1FA41710F0A41B83955051B9F7A05DDF
:10087000AA3308F0A95DA193009779F7B111B1935C
:100880001192CB010C944404DC01FC01672F71919F
:100890007723E1F7329704C07C916D937083629166
:0C08A000AE17BF07C8F30895F894FFCF0F
:1008AC007374617274696E672E2E2E00693D200080
:0408BC000D0A000021
:00000001FF
