S00F00004D5055363035302E7372656358
S11300000C948B000C94A8000C94A8000C94A800E9
S11300100C94A8000C94A8000C94A8000C94A800BC
S11300200C94A8000C94A8000C94A8000C94A800AC
S11300300C94A8000C94A8000C94A8000C94A8009C
S11300400C94A8000C94A8000C94A8000C94A8008C
S11300500C94A8000C94A8000C94A8000C94AC0870
S11300600C94A8000C94780B0C94A60B0C94A80088
S11300700C94A8000C94A8000C94A8000C94A8005C
S11300800C94A8000C94A8000C94A8000C94A8004C
S11300900C94A8000C94A8000C94A8000C94A8003C
S11300A00C94A8000C94A8000C94A800036EDB36F2
S11300B03D9A9999993DABAAAA2A3E000000803F37
S11300C0084AD73B3BCE016E84BCBFFDC12F3D6CBB
S11300D074319ABD56833DDA3D00C77F11BED9E421
S11300E0BB4C3E916BAAAABE000000803F072C7A4D
S11300F0A5BA6CC590DA3B9365FC8BBC53F810FD34
S11301003C5692834DBD879D3AB63DCBC9BF5BBE7D
S113011073DA0FC93F0011241FBECFEFDAE0DEBF50
S1130120CDBF11E0A0E0B1E0E4EAFEE102C0059039
S11301300D92A430B107D9F721E0A4E0B1E001C0E9
S11301401D92AF36B207E1F70E94AA000C94500F3B
S11301500C940000CF93DF93CDB7DEB76C970FB646
S1130160F894DEBF0FBECDBF80E090E0A0E8BFE30F
S113017089839A83AB83BC831D821E821F82188667
S113018019861A861B861C861D861E861F86188A5B
S1130190198A1A8A1B8A1C8A1D8A1E8A1F8A188E2B
S11301A0198E1A8E1B8E1C8E80E190E00E94D00B5B
S11301B078940E9481022FEF80E792E021508040E2
S11301C09040E1F700C000009E01235F3F4FAE0165
S11301D0475F5F4FBE016B5F7F4FCE0101960E9468
S11301E0D008AE01475E5F4FBE016B5E7F4FCE010C
S11301F041960E940D098FE39CE90197F1F700C035
S1130200000089810E94E90B8A810E94E90B8B819D
S11302100E94E90B8C810E94E90B8D810E94E90BFD
S11302208E810E94E90B8F810E94E90B88850E94D0
S1130230E90B89850E94E90B8A850E94E90B8B856D
S11302400E94E90B8C850E94E90B8D850E94E90BC5
S11302508E850E94E90B8F850E94E90B88890E9494
S1130260E90B89890E94E90B8A890E94E90B8B8931
S11302700E94E90B8C890E94E90B8D890E94E90B8D
S11302808E890E94E90B8F890E94E90B888D0E9458
S1130290E90B898D0E94E90B8A8D0E94E90B8B8DF5
S11302A00E94E90B8C8D0E94E90B8AE00E94E90B05
S11302B08BCFAF92BF92CF92DF92FF920F931F9397
S11302C0CF93DF936623B9F1C52FD42FF62E182FC1
S11302D080ED0E94CD0A812F0E94230B85E38A952D
S11302E0F1F7000081ED0E94CD0A0D2F1C2FCC24C4
S11302F0CA94CF0CD12CEFEFCE1ADE0AC0E0D0E0C6
S1130300AF2CB12CF1E0AF1AB108AC16BD0629F43C
S11303100E945E0BF801808304C00E94440BF80124
S1130320808321960F5F1F4FCC15DD0571F7CF2D0C
S11303300E94130B01C0C0E08C2FDF91CF911F915D
S11303400F91FF90DF90CF90BF90AF900895AB01D5
S113035061E00E9459010895EF92FF920F931F9359
S1130360CF93DF936623D1F07A01162FC82F80ED47
S11303700E94CD0A8C2F0E94230BE7016FEF610FBF
S1130380062F10E00F5F1F4F0E0D1F1D89910E9455
S1130390230BC017D107D1F70E94130BDF91CF9124
S11303A01F910F91FF90EF900895CF93DF931F92C9
S11303B0CDB7DEB76983AE014F5F5F4F61E00E9446
S11303C0AC010F90DF91CF910895FF920F931F938B
S11303D0CF93DF931F92CDB7DEB7F62E8A01BE010D
S11303E06F5F7F4F0E94A70121E030E002C0220F1F
S11303F0331FFA94E2F799812923F80120830F909F
S1130400DF91CF911F910F91FF900895EF92FF928A
S11304100F931F93CF93DF931F92CDB7DEB744237F
S113042089F1F22E142F062FE82E1982BE016F5F78
S11304307F4F0E94A701882329F1402F50E0411BE0
S113044051094F5F5F4F81E090E002C0880F991F10
S11304501A95E2F70197042E02C0880F991F0A9497
S1130460E2F72F2D30E002C0220F331F4A95E2F746
S1130470682F6095998169238223682B69838E2D67
S11304800E94D5010F90DF91CF911F910F91FF90A2
S1130490EF900895FF920F931F93CF93DF931F92D2
S11304A0CDB7DEB7182F062FF42EBE016F5F7F4F36
S11304B00E94A701FF2051F061E070E002C0660FC6
S11304C0771F0A95E2F78981682B0AC061E070E022
S11304D002C0660F771F0A95E2F760958981682349
S11304E06983812F0E94D5010F90DF91CF911F91D5
S11304F00F91FF90089540E066E08BE60E944A0267
S113050008950E94C70A25E32A95F1F700008FEFAA
S113051091EE24E0815090402040E1F700C00000BB
S11305200E947B028FE39CE90197F1F700C0000071
S113053021E043E062E08BE60E94060223E043E010
S113054062E08AE10E94060264E089E10E94D5012A
S113055023E042E064E08BE10E94060220E042E0F6
S113056064E08CE10E94060285B5856085BDEEE6F7
S1130570F0E080818160808308954F925F926F9252
S11305807F928F929F92AF92BF92CF92DF92EF921F
S1130590FF920F931F93CF93DF93CDB7DEB7A4974A
S11305A00FB6F894DEBF0FBECDBF6D877E878F87F1
S11305B0988B298B3A8B4B8B5C8BED8AFE8A0F8B45
S11305C0188F20E030E0A901C601B5010E94F80CA3
S11305D0811117C020E030E0A9016FA978AD89AD81
S11305E09AAD0E94F80C81110CC020E030E0A90102
S11305F06BAD7CAD8DAD9EAD0E94F80C882309F4E3
S11306001AC2A6019501C601B5010E94840E2B01F0
S11306103C012FA938AD49AD5AADCA01B9010E94B8
S1130620840E69837A838B839C839B01AC01C30111
S1130630B2010E94FF0B6D8F7E8F8F8F98A32BAD1D
S11306403CAD4DAD5EADCA01B9010E94840E698F07
S11306507A8F8B8F9C8F29813A814B815C81C30176
S1130660B2010E94FF0B2B013C01298D3A8D4B8D69
S11306705C8DC301B2010E94FF0B0E94F70E2B0197
S11306803C019B01AC01C601B5010E94FD0C6983CC
S11306907A838B839C83A30192016FA978AD89AD82
S11306A09AAD0E94FD0C6D837E838F839887A3018E
S11306B092016BAD7CAD8DAD9EAD0E94FD0C698742
S11306C07A878B879C8760911801709119018091BA
S11306D01A0190911B012091100130911101409158
S11306E01201509113018090000190900101A0909B
S11306F00201B090030140901401509015016090E4
S11307001601709017010E94840E6B017C01A301F5
S11307109201C501B4010E94840E9B01AC01C70182
S1130720B6010E94FE0B698F7A8F8B8F9C8F60912C
S113073000017091010180910201909103012091C7
S113074018013091190140911A0150911B018090B8
S1130750140190901501A0901601B09017014090DB
S113076010015090110160901201709013010E94C9
S1130770840E6B017C01A3019201C501B4010E94A6
S1130780840E9B01AC01C701B6010E94FF0B6D8F63
S11307907E8F8F8F98A360910001709101018091E9
S11307A002019091030120910001309101014091D7
S11307B00201509103018090100190901101A090CA
S11307C01201B090130140901001509011016090FB
S11307D01201709013010E94840E20E030E040E08A
S11307E05FE30E94FE0B6B017C01A3019201C50132
S11307F0B4010E94840E9B01AC01C701B6010E94A2
S1130800FF0B6B017C019B01AC016D817E818F81AB
S113081098850E94840E4B015C012D8D3E8D4F8D79
S113082058A169857A858B859C850E94840E9B01DD
S1130830AC01C501B4010E94FE0B69A37AA38BA38A
S11308409CA3298D3A8D4B8D5C8D69857A858B852A
S11308509C850E94840E4B015C01A701960169816D
S11308607A818B819C810E94840E9B01AC01C5011D
S1130870B4010E94FE0B2B013C012D8D3E8D4F8D4A
S113088058A169817A818B819C810E94840E6B01BD
S11308907C01298D3A8D4B8D5C8D6D817E818F819C
S11308A098850E94840E9B01AC01C701B6010E9489
S11308B0FE0B4B015C01C0900C01D0900D01E09047
S11308C00E01F0900F012DEC3CEC4CE45EE369A1C9
S11308D07AA18BA19CA10E94840E2AE83BE446E8FD
S11308E05CE30E94840EA70196010E94FF0B6093B3
S11308F00C0170930D0180930E0190930F01C09031
S11309000801D0900901E0900A01F0900B012DEC50
S11309103CEC4CE45EE3C301B2010E94840E2AE87D
S11309203BE446E85CE30E94840EA70196010E9422
S1130930FF0B609308017093090180930A0190935F
S11309400B01C0900401D0900501E0900601F090E5
S113095007012DEC3CEC4CE45EE3C501B4010E94BC
S1130960840E2AE83BE446E85CE30E94840EA70177
S113097096010E94FF0B609304017093050180931C
S113098006019093070120910C0130910D014091D3
S11309900E0150910F016D857E858F8598890E9487
S11309A0FF0B6D837E838F8398872091080130919C
S11309B0090140910A0150910B0169897A898B8957
S11309C09C890E94FF0B6B017C01209104013091F2
S11309D0050140910601509107016D897E898F8937
S11309E0988D0E94FF0B69877A878B879C872D815E
S11309F03E814F81588569A17AA18BA19CA10E9457
S1130A00FF0B6D877E878F87988BA7019601C301A3
S1130A10B2010E94FF0B698B7A8B8B8B9C8B29858F
S1130A203A854B855C85C501B4010E94FF0B6D8B33
S1130A307E8B8F8B988F2AE83BE446E05CE36D85E0
S1130A407E858F8598890E94840E6D837E838F8333
S1130A5098872AE83BE446E05CE369897A898B89D4
S1130A609C890E94840E69877A878B879C872AE8F1
S1130A703BE446E05CE36D897E898F89988D0E9412
S1130A80840E6D877E878F87988B8091000190916B
S1130A900101A0910201B0910301898B9A8BAB8B68
S1130AA0BC8B8090180190901901A0901A01B0900D
S1130AB01B018091140190911501A0911601B09130
S1130AC017018D8B9E8BAF8BB88F40901001509087
S1130AD011016090120170901301C0900001D09038
S1130AE00101E0900201F0900301C501B4019058A6
S1130AF02D813E814F8158850E94840E69837A83BB
S1130B008B839C832D893E894F89588D69857A858D
S1130B108B859C850E94840E9B01AC0169817A813E
S1130B208B819C810E94FE0B69837A838B839C83D7
S1130B30A30192016D857E858F8598890E94840E1C
S1130B409B01AC0169817A818B819C810E94FE0B9F
S1130B50A70196010E94FF0B6093000170930101AD
S1130B608093020190930301409010015090110171
S1130B706090120170901301C0901801D090190177
S1130B80E0901A01F0901B0129893A894B895C890C
S1130B906D817E818F8198850E94840E69837A831A
S1130BA08B839C832D893E894F89588D6D857E85E5
S1130BB08F8598890E94840E9B01AC0169817A819A
S1130BC08B819C810E94FF0B69837A838B839C8336
S1130BD0A301920169857A858B859C850E94840E88
S1130BE09B01AC0169817A818B819C810E94FE0BFF
S1130BF0A70196010E94FF0B6093180170931901DD
S1130C0080931A0190931B014090100150901101A0
S1130C106090120170901301C0901401D0901501DE
S1130C20E0901601F090170129893A894B895C8973
S1130C3069857A858B859C850E94840E69837A8375
S1130C408B839C83A50194016D857E858F8598890E
S1130C500E94840E9B01AC0169817A818B819C8105
S1130C600E94FE0B69837A838B839C83A301920188
S1130C706D817E818F8198850E94840E9B01AC01D9
S1130C8069817A818B819C810E94FF0BA701960167
S1130C900E94FF0B60931401709315018093160159
S1130CA090931701C0901001D0901101E0901201AF
S1130CB0F090130129893A894B895C896D857E8579
S1130CC08F8598890E94840E2B013C01A501940113
S1130CD069857A858B859C850E94840E9B01AC0175
S1130CE0C301B2010E94FF0B4B015C012D893E89B7
S1130CF04F89588D6D817E818F8198850E94840EE5
S1130D009B01AC01C501B4010E94FE0BA701960131
S1130D100E94FF0B609310017093110180931201E4
S1130D2090931301C0900001D0900101E090020162
S1130D30F09003018090000190900101A0900201C5
S1130D40B09003018091180190911901A0911A01AA
S1130D50B0911B018D839E83AF83B8878091180166
S1130D6090911901A0911A01B0911B0189879A876A
S1130D70AB87BC878091140190911501A091160155
S1130D80B09117018D879E87AF87B88B809114012E
S1130D9090911501A0911601B0911701898B9A8B3E
S1130DA0AB8BBC8B409010015090110160901201EC
S1130DB0709013018091100190911101A091120182
S1130DC0B09113018D8B9E8BAF8BB88FA5019401CD
S1130DD0C701B6010E94840E69837A838B839C8346
S1130DE029853A854B855C856D817E818F819885C7
S1130DF00E94840E9B01AC0169817A818B819C8164
S1130E000E94FF0B69837A838B839C8329893A89A7
S1130E104B895C896D857E858F8598890E94840EB7
S1130E209B01AC0169817A818B819C810E94FF0BBB
S1130E3069837A838B839C83A5019401C701B601DE
S1130E400E94840E6B017C0129853A854B855C8563
S1130E506D817E818F8198850E94840E9B01AC01F7
S1130E60C701B6010E94FF0B6B017C0129893A89F5
S1130E704B895C896D857E858F8598890E94840E57
S1130E809B01AC01C701B6010E94FF0B6B017C0101
S1130E902D893E894F89588DC301B2010E94840E69
S1130EA09B01AC01C701B6010E94FF0B0E94F70E23
S1130EB06B017C016091000170910101809102013C
S1130EC090910301A70196010E94FD0C609300011B
S1130ED070930101809302019093030160911801C2
S1130EE07091190180911A0190911B01A70196013B
S1130EF00E94FD0C609318017093190180931A01EC
S1130F0090931B0160911401709115018091160159
S1130F1090911701A70196010E94FD0C60931401A2
S1130F20709315018093160190931701609110013D
S1130F30709111018091120190911301A701960102
S1130F400E94FD0C609310017093110180931201B3
S1130F5090931301A4960FB6F894DEBF0FBECDBFD5
S1130F60DF91CF911F910F91FF90EF90DF90CF9081
S1130F70BF90AF909F908F907F906F905F904F90B5
S1130F8008954F925F926F927F92AF92BF92CF92E9
S1130F90DF92EF92FF920F931F93CF93DF93CDB71E
S1130FA0DEB72B970FB6F894DEBF0FBECDBF41E678
S1130FB051E060E08AE30E94E501809161018111C2
S1130FC005C025E32A95F1F70000F1CF41E651E091
S1130FD06EE08BE30E945901E1E6F1E080816181DA
S1130FE0028133813987148195819A876084718461
S1130FF052844384E484F58470E0782B072E000C3B
S1131000880B990B0E94710D20E030E040E858E312
S11310100E94840E5B016C016F2D70E07E29635E7B
S11310207F4F072E000C880B990B0E94710D23E350
S113103033E343E851E40E94FD0C24E33AEF4EE825
S11310405CE30E94840E69837A838B839C83642D82
S113105070E0752969507109072E000C880B990BF3
S11310600E94710D23E333E343E851E40E94FD0C35
S113107024E33AEF4EE85CE30E94840E6D837E83A2
S11310808F839887672D70E07629665D7F4F072EE2
S1131090000C880B990B0E94710D23E333E343E8A2
S11310A051E40E94FD0C24E33AEF4EE85CE30E9415
S11310B0840E2B013C012A85622F70E0712B072ED0
S11310C0000C880B990B0E94710D20E030E040E881
S11310D058E30E94840E9F938F937F936F93398577
S11310E0632F70E0CB01902B9B878A87BC01990FFB
S11310F0880B990B0E94710D20E030E040E858E322
S11311000E94840E9F938F937F936F93E980FA805C
S11311100B811C812D813E814F815885C301B20111
S11311200E94BD020FB6F894DEBF0FBECDBF2B9652
S11311300FB6F894DEBF0FBECDBFDF91CF911F91E4
S11311400F91FF90EF90DF90CF90BF90AF907F9082
S11311506F905F904F9008951F920F920FB60F9269
S113116011242F933F934F935F936F937F938F93A8
S11311709F93AF93BF93EF93FF930E94C107FF9197
S1131180EF91BF91AF919F918F917F916F915F91FB
S11311904F913F912F910F900FBE0F901F90189574
S11311A0CF92DF92EF92FF92C0900001D0900101A4
S11311B0E0900201F0900301FC01C082D182E2823E
S11311C0F3828091180190911901A0911A01B091B4
S11311D01B01FB0180839183A283B383809114015B
S11311E090911501A0911601B0911701FA01808325
S11311F09183A283B3838091100190911101A091F6
S11312001201B0911301F90180839183A283B38306
S1131210FF90EF90DF90CF9008952F923F924F92DE
S11312205F926F927F928F929F92AF92BF92CF9272
S1131230DF92EF92FF920F931F93CF93DF93CDB77B
S1131240DEB762970FB6F894DEBF0FBECDBF1C01A8
S11312508B015A8B498B609100017091010180913F
S11312600201909103018090000190900101A090EF
S11312700201B0900301C0901801D0901901E090D0
S11312801A01F0901B01209118013091190140912D
S11312901A0150911B012D833E834F83588720915F
S11312A018013091190140911A0150911B012983B1
S11312B03A834B835C832091140130911501409152
S11312C016015091170129873A874B875C87409014
S11312D0000150900101609002017090030120917F
S11312E010013091110140911201509113012D8789
S11312F03E874F87588B9B01AC010E94FF0BA501D1
S113130094010E94840E4B015C01A7019601C70160
S1131310B6010E94FF0B2D813E814F8158850E94AA
S1131320840E9B01AC01C501B4010E94FF0B20E0B7
S113133030E040E85FE30E94FE0B6B017C012981F1
S11313403A814B815C81CA01B9010E94FF0B298556
S11313503A854B855C850E94840E4B015C01A30198
S11313609201C301B2010E94FF0B2D853E854F857A
S113137058890E94840E9B01AC01C501B4010E94EE
S1131380FE0BA70196010E94990CE989FA896083F2
S11313907183828393836091180170911901809104
S11313A01A0190911B018090100190901101A0905E
S11313B01201B0901301C0900001D0900101E0909F
S11313C00201F090030140901401509015016090C7
S11313D01601709017019B01AC010E94FF0BA5013F
S11313E094010E94840E4B015C01A7019601C70180
S11313F0B6010E94FF0BA30192010E94840E9B017F
S1131400AC01C501B4010E94FF0B0E946B0CDC010E
S1131410CB01B058F80180839183A283B383609198
S1131420000170910101809102019091030180906B
S1131430000190900101A0900201B0900301C090BE
S11314401001D0901101E0901201F090130120914D
S113145010013091110140911201509113012D831B
S11314603E834F8358872091140130911501409198
S113147016015091170129833A834B835C83209191
S113148010013091110140911201509113012987EB
S11314903A874B875C87409000015090010160902F
S11314A002017090030120911801309119014091BB
S11314B01A0150911B012D873E874F87588B9B0142
S11314C0AC010E94FF0BA50194010E94840E4B0104
S11314D05C01A7019601C701B6010E94FF0B2D8193
S11314E03E814F8158850E94840E9B01AC01C50149
S11314F0B4010E94FF0B20E030E040E85FE30E946B
S1131500FE0B6B017C0129813A814B815C81CA010C
S1131510B9010E94FF0B29853A854B855C850E94A1
S1131520840E4B015C01A3019201C301B2010E942C
S1131530FF0B2D853E854F8558890E94840E9B01A3
S1131540AC01C501B4010E94FE0BA70196010E94E3
S1131550990CF101608371838283938362960FB641
S1131560F894DEBF0FBECDBFDF91CF911F910F91D5
S1131570FF90EF90DF90CF90BF90AF909F908F90AF
S11315807F906F905F904F903F902F9008951092AE
S1131590B9008CE08093B800089594EA9093BC005D
S11315A04FEF50E060E070E0ECEBF0E090819923C5
S11315B034F04150510961097109C0F704C0452B49
S11315C0462B472B41F19091B900987F983011F048
S11315D0903119F58093BB0084E88093BC008FEFB1
S11315E090E0A0E0B0E0ECEBF0E0208122232CF0CE
S11315F00197A109B109C8F704C0892B8A2B8B2B49
S113160071F09091B900987F983159F081E090344D
S113161049F480E0089581E0089581E0089581E02F
S1131620089580E0089584E98093BC0080E090E010
S1131630ECEBF0E0208124FF05C00196811521E048
S11316409207C1F708958093BB0084E88093BC009F
S11316508FEF90E0A0E0B0E0ECEBF0E020812223FB
S11316602CF00197A109B109C8F704C0892B8A2B72
S11316708B2B41F09091B900987F81E0983219F456
S113168080E0089581E0089584EC8093BC008FEF9E
S113169090E0A0E0B0E0ECEBF0E0208122232CF01D
S11316A00197A109B109C8F704C0892B8A2B8B2B98
S11316B019F08091BB00089580E0089584E8809338
S11316C0BC008FEF90E0A0E0B0E0ECEBF0E0208114
S11316D022232CF00197A109B109C8F704C0892B72
S11316E08A2B8B2B19F08091BB00089580E008951C
S11316F01F920F920FB60F9211242F938F939F93E3
S1131700EF93FF938091C8002091CE008C71E091FB
S11317101E01EF5FEF7190911D01E91739F0E0931D
S11317201E01F0E0EF5DFE4F208301C082E0909146
S11317301C01892B80931C01FF91EF919F918F9144
S11317402F910F900FBE0F901F9018951F920F921C
S11317500FB60F9211248F939F93EF93FF93909161
S1131760200180911F01981769F0E0911F01EF5F3C
S1131770EF71E0931F01F0E0EF5BFE4F80818093F7
S1131780CE0005C0E9ECF0E080818F7D8083FF917D
S1131790EF919F918F910F900FBE0F901F9018950E
S11317A01092200110921F0110921E0110921D012F
S11317B099231CF422E02093C80090789093CD00E4
S11317C08093CC0088E98093C90086E08093CA00A6
S11317D00895209120012F5F2F7190911F012917E7
S11317E0E1F3E22FF0E0EF5BFE4F808320932001D2
S11317F0E9ECF0E080818062808308955058BB2733
S1131800AA270E94160C0C94420E0E94340E38F043
S11318100E943B0E20F039F49F3F19F426F40C94F7
S1131820F60D0EF4E095E7FB0C94F00DE92F0E9401
S1131830530E58F3BA17620773078407950720F00D
S113184079F4A6F50C94750E0EF4E0950B2EBA2FD0
S1131850A02D0B01B90190010C01CA01A0011124B2
S1131860FF27591B99F0593F50F4503E68F11A165E
S1131870F040A22F232F342F4427585FF3CF4695EF
S113188037952795A795F0405395C9F77EF41F1611
S1131890BA0B620B730B840BBAF09150A1F0FF0FDB
S11318A0BB1F661F771F881FC2F70EC0BA0F621FC7
S11318B0731F841F48F4879577956795B795F795B7
S11318C09E3F08F0B0CF9395880F08F09927EE0F4C
S11318D09795879508959F939F77EEE389379E07A1
S11318E028F4ECEAF0E00E94200E0CC00E94AC0D3B
S11318F09058A2EA2AED3FE049EC5FE30E94160CFF
S11319000E94420E0F9007FC905808950E94340ED6
S113191060F080E891E009F49EEF0E943B0E28F00D
S113192040E851E071F45EEF0CC00C94F60D0C9499
S1131930750EE92FE0780E94530E40F3092E052A14
S1131940B1F3261737074807590738F00E2E07F862
S1131950E02569F0E025E0640AC0EF6307F800942D
S113196007FADB01B9019D01DC01CA01AD01EF9366
S11319700E94140D0E94420E0E94C90C5F915523CF
S113198039F02BED3FE049E450FD49EC0C94FF0B9A
S11319900895DF93DD27B92FBF7740E85FE316167C
S11319A0170648075B0718F4D92F0E947C0E9F93F3
S11319B08F937F936F930E94370FE0ECF0E00E94C7
S11319C0F90D0E94420E2F913F914F915F910E9419
S11319D0970EDD2351F09058A2EA2AED3FE049EC3E
S11319E05FE3D0785D270E94160CDF910C94420EC1
S11319F00E94CC0D08F481E008950E94110D0C940E
S1131A00420E0E943B0E58F00E94340E40F029F41E
S1131A105F3F29F00C94F00D51110C94760E0C9448
S1131A20F60D0E94530E68F39923B1F3552391F3F5
S1131A30951B550BBB27AA2762177307840738F039
S1131A409F5F5F4F220F331F441FAA1FA9F335D096
S1131A500E2E3AF0E0E832D091505040E695001C4A
S1131A60CAF72BD0FE2F29D0660F771F881FBB1F04
S1131A70261737074807AB07B0E809F0BB0B802DE2
S1131A80BF01FF2793585F4F3AF09E3F510578F00E
S1131A900C94F00D0C94760E5F3FE4F3983ED4F36F
S1131AA0869577956795B795F7959F5FC9F7880FE2
S1131AB0911D9695879597F90895E1E0660F771F34
S1131AC0881FBB1F621773078407BA0720F0621BC5
S1131AD0730B840BBA0BEE1F88F7E0950895E89416
S1131AE009C097FB3EF490958095709561957F4F62
S1131AF08F4F9F4F9923A9F0F92F96E9BB27939510
S1131B00F695879577956795B795F111F8CFFAF41F
S1131B10BB0F11F460FF1BC06F5F7F4F8F4F9F4F50
S1131B2016C0882311F096E911C0772321F09EE8AE
S1131B30872F762F05C0662371F096E8862F70E014
S1131B4060E02AF09A95660F771F881FDAF7880FEE
S1131B509695879597F90895DF93CF931F930F93E5
S1131B608B01EC01EDEEF0E00E94F90D0E94420EB3
S1131B709801AE018B01EC0160E070E080E89FE326
S1131B800E94FE0B0E94F70E9801AE010F911F9167
S1131B90CF91DF910C94970E990F0008550FAA0B63
S1131BA0E0E8FEEF16161706E807F907C0F012166C
S1131BB01306E407F50798F0621B730B840B950B6F
S1131BC039F40A2661F0232B242B252B21F40895C4
S1131BD00A2609F4A140A6958FEF811D811D089561
S1131BE097F99F6780E870E060E008959FEF80ECCC
S1131BF00895DF93CF931F930F93FF92EF92DF9299
S1131C007B018C01689406C0DA2EEF010E94970EC6
S1131C10FE01E894A5912591359145915591A6F33E
S1131C20EF010E94160CFE019701A801DA9469F7EE
S1131C30DF90EF90FF900F911F91CF91DF91089566
S1131C409F938F937F936F93FF93EF939B01AC01CB
S1131C500E94840EEF91FF910E94F90D2F913F9104
S1131C604F915F910C94840E00240A941616170663
S1131C7018060906089500240A9412161306140679
S1131C8005060895092E0394000C11F4882352F0DC
S1131C90BB0F40F4BF2B11F460FF04C06F5F7F4F94
S1131CA08F4F9F4F089557FD9058440F551F59F07B
S1131CB05F3F71F04795880F97FB991F61F09F3F35
S1131CC079F087950895121613061406551FF2CF5E
S1131CD04695F1DF08C0161617061806991FF1CFAE
S1131CE086957105610508940895E894BB276627D5
S1131CF07727CB0197F908959B01AC0160E070E070
S1131D0080E89FE30C94FD0C0E94970E0C94420E05
S1131D100E94340E38F00E943B0E20F0952311F0FF
S1131D200C94F00D0C94F60D11240C94760E0E9474
S1131D30530E70F3959FC1F3950F50E0551F629FAA
S1131D40F001729FBB27F00DB11D639FAA27F00D10
S1131D50B11DAA1F649F6627B00DA11D661F829F37
S1131D602227B00DA11D621F739FB00DA11D621F1C
S1131D70839FA00D611D221F749F3327A00D611D39
S1131D80231F849F600D211D822F762F6A2F11241B
S1131D909F5750409AF0F1F088234AF0EE0FFF1F4E
S1131DA0BB1F661F771F881F91505040A9F79E3FA5
S1131DB0510580F00C94F00D0C94760E5F3FE4F323
S1131DC0983ED4F3869577956795B795F795E795FB
S1131DD09F5FC1F7FE2B880F911D9695879597F904
S1131DE0089519F416F40C94F60D0C943B0F0E940C
S1131DF05B0EB8F39923C9F3B6F39F57550B87FFCE
S1131E000E94490F0024A0E640EA900180585695AC
S1131E10979528F4805C660F771F881F20F026179B
S1131E203707480730F4621B730B840B20293129D0
S1131E304A2BA69517940794202531254A2758F74D
S1131E40660F771F881F20F026173707480730F4DE
S1131E50620B730B840B200D311D411DA09581F77E
S1131E60B901842F9158880F9695879508959B0101
S1131E70AC010C94840E9F3F31F0915020F487956F
S1131E8077956795B795880F911D9695879597F9DE
S1131E90089591505040660F771F881FD2F7089518
S1071EA0F894FFCFE0
S1071EA40000803F77
S9030000FC
